:020000040800F2
:10000000800500209D0100087B160008DD15000812
:1000100079160008330700089D180008000000004A
:100020000000000000000000000000007F16000833
:1000300035070008000000007D1600088116000842
:10004000B7010008B7010008B7010008B7010008B0
:10005000B7010008B7010008B7010008B7010008A0
:10006000B7010008B7010008B7010008B701000890
:10007000B7010008B7010008B7010008B701000880
:10008000B7010008B7010008B7010008B701000870
:10009000B7010008B7010008B7010008B701000860
:1000A000B7010008B7010008B7010008B701000850
:1000B000B7010008B7010008B7010008B701000840
:1000C000B7010008B7010008B7010008B701000830
:1000D000B7010008B7010008B7010008B701000820
:1000E000B7010008B7010008B7010008B701000810
:1000F000B7010008B7010008B7010008B701000800
:10010000B7010008B7010008B7010008B7010008EF
:10011000B7010008B7010008B7010008B7010008DF
:10012000B7010008B7010008B7010008B7010008CF
:10013000B7010008B7010008B7010008B7010008BF
:10014000B7010008B7010008B7010008B7010008AF
:10015000B7010008B7010008B7010008B70100089F
:10016000B7010008B7010008B7010008B70100088F
:10017000B7010008B7010008B7010008000000003F
:10018000B7010008B7010008DFF80CD000F050FA02
:100190000048004781260008800500200648804767
:1001A00006480047FEE7FEE7FEE7FEE7FEE7FEE75C
:1001B000FEE7FEE7FEE7FEE7F51600088901000806
:1001C0002DE9F05F0546002092469B46884606468C
:1001D000814640241BE0284641464746224600F01F
:1001E0005EF853465A46C01A914110D3114618463C
:1001F000224600F045F82D1A67EB01084F462246CB
:100200000120002100F03CF817EB00094E41201EB0
:10021000A4F10104DFDC484631462A464346BDE8E6
:10022000F09FD2B201E000F8012B491EFBD27047CB
:100230000022F6E710B513460A4604461946FFF7B2
:10024000F0FF204610BD421C10F8011B0029FBD115
:10025000801A704730B50B46014600202022012449
:1002600009E021FA02F59D4205D303FA02F5491B84
:1002700004FA02F52844151EA2F10102F1DC30BD9A
:10028000202A04DB203A00FA02F100207047914056
:10029000C2F1200320FA03F3194390407047202A4B
:1002A00004DB203A21FA02F00021704721FA02F320
:1002B000D040C2F1200291400843194670472DE911
:1002C000FE4F804681EA0300C00F0C46009021F0EB
:1002D000004123F00045B8EB0200A94105D2404699
:1002E000214690461C460B46024623F00040104330
:1002F00047D0270DC7F30A00C3F30A510290401AF2
:10030000019040286BDAC3F3130040F4801B00987F
:10031000924620B10023D2EB030A63EB0B0B01984A
:100320005946C0F140025046FFF7AAFF06460D4667
:1003300050465946019A00F08DF910EB08006141D2
:10034000002487EA115284EAE7731A4340D0009AE6
:1003500062B3019A012A4FEA075215DC001B61EBD8
:1003600002014FF0004202EA0752CDE90042001CB0
:1003700041F5801132462B4600F08DF903B0BDE8FF
:10038000F08F40462146F9E7001B61EB0201001C9B
:1003900041F5801300185B412018A2F5001747EBC8
:1003A000030140EAD570B6196D4111E06D084FEABE
:1003B000360645EAC0754FEA0752001B61EB0201A1
:1003C000001C41F5801149084FEA300000195141E5
:1003D00032462B4603B0BDE8F04F00F04DB900980F
:1003E000012240000023D0EB020263EBE07300988F
:1003F00021464FEAE074B8EB000061EB0401E9E745
:1004000083F000435BE781F0004158E72DE9FE4FA0
:1004100081EA030404F0004421F0004100944FF00D
:10042000000B23F0004350EA01045ED052EA0304BB
:100430005BD0C3F30A54C1F30A552C44A4F2F3343D
:100440000194A0FB0254C1F3130141F48011C3F3E2
:10045000130343F4801301FB024400FB034E840AA0
:10046000970A44EA815447EA8357A4FB0768029538
:100470008D0A05FB07854FEA932C04FB0C542705D6
:10048000029D4FEA065847EA1637B5EB08056EEBB2
:10049000070C870E920E47EA811742EA8312A7FBE8
:1004A0000201B6EB0B0164EB00042B0D43EA0C33A5
:1004B0005E1844EB1C50DA465146E7FB0201C5F3D7
:1004C00013044FEA0B3343EA14534FEA0432019CFE
:1004D00043EA0603A4F10C040294009CCDE900B4A5
:1004E00000F0D9F803B0BDE8F08F00200146F9E72D
:1004F0002DE9F04D81EA030404F0004B21F00045A2
:1005000014464FF0000A23F0004150EA050220D0C3
:1005100054EA01021DD0C5F30A570246C5F313037E
:10052000C1F31300C1F30A5640F4801543F480135D
:10053000A7EB0608101BD64608F2FD3873EB050042
:1005400002D308F1010801E092185B41B8F1000FF5
:1005500003DA00200146BDE8F08D00204FF4801141
:10056000064684460EE0171B73EB050705D3121BE6
:1005700063EB050306434CEA010C49084FEA3000DF
:1005800092185B4150EA0107EDD152EA030012D004
:1005900082EA040083EA0501084305D0101BAB4141
:1005A00006D20122002306E000224FF0004302E0C1
:1005B0006FF0010253101AEB06004CEB085110EBE0
:1005C0000A0041EB0B01BDE8F04D00F055B8C1F356
:1005D0000A52C1F3130140F2FF3341F480119A42F1
:1005E00002DA00200146704740F233439A42A2F2F9
:1005F000334202DC5242FFF752BEFFF741BE000019
:1006000030B5041E71F1000404DB4FF00044404299
:1006100064EB0101141E73F1000405DB1C464FF06E
:100620000043524263EB0403994208BF904230BD3D
:10063000064C074D06E0E06840F0010394E807002F
:1006400098471034AC42F6D3FFF7A2FDCC27000840
:10065000EC270008202A06DBCB17203A41FA02F0EB
:1006600043EAE07306E041FA02F3D040C2F120020F
:10067000914008431946704710B5141E73F10004E9
:1006800008DA401C41F1000192185B411A4301D184
:1006900020F0010010BD2DE9F04D92469B4611B1AE
:1006A000B1FA81F202E0B0FA80F220329046FFF710
:1006B000E7FD04460F4640EA0A0041EA0B015346B3
:1006C0005A46084313D0114653EA010019D0C8F125
:1006D00040025046FFF7E3FD05460E465046594698
:1006E0004246FFF7CDFD084305D0012004E0204637
:1006F0003946BDE8F08D0020054346EAE0762C43FC
:1007000037430A986305E40AA0EB08000022FD0ABB
:1007100044EA47540A3002D500200146E9E70105C2
:1007200010196941DDE9084500196941BDE8F04D3E
:10073000A2E7FEE770470000002229B101291AD084
:1007400002291BD04FF440720E490B6823F440730A
:100750000B600B6813430B600A6822F0F8020A6012
:100760000A68022303EBC00002430A60086840F4F1
:100770008030086070474FF48072E5E74FF40072F4
:10078000E2E70000103C02401348016889050FD5DC
:10079000016821F400710160016841F400610160A9
:1007A000016821F400610160016841F40071016099
:1007B000016849050FD5016821F480610160016875
:1007C00041F480510160016821F4805101600168A9
:1007D00041F4806101607047003C024008490A68AA
:1007E00022F440720A600A6842F004020A600A6851
:1007F0004FF4803343EA002002430A607047000050
:10080000103C0240064A136823F4407313601368D7
:100810001360136843F00103136001707047000018
:10082000103C0240094910B50C6824F440740C6077
:100830000C6844F440740C600C6844F001040C60D3
:100840000260BFF36F8F436010BD0000103C024098
:10085000074A136823F440731360136843F48073EA
:100860001360136843F001031360018070470000B8
:10087000103C0240074A136823F440731360136866
:1008800043F400731360136843F0010313600160C5
:1008900070470000103C024017490868C20617481C
:1008A00005D5C26942F01002C26110220A600A68CE
:1008B000920605D5C26942F00802C26120220A6090
:1008C0000A68520605D5C26942F00402C26140229C
:1008D0000A600A68120605D5C26942F00202C261C6
:1008E00080220A600A68920705D5C26942F0200298
:1008F000C2610220086070470C3C02406001002089
:1009000070B5114904460020C86100F0E9F90646B7
:100910000E4D09E0601C07D024B100F0E1F9801B06
:10092000A04201D9032070BD2868C003F2D4286812
:10093000C00701D001202860286810F0F200F2D032
:10094000FFF7AAFF012070BD600100200C3C0240AF
:1009500030B502234371002305E000BF056851F85C
:1009600023402C605B1C9342F8D301680968012284
:100970004271084630BD10B5040002D0607910B154
:1009800006E0012010BD00202071204600F004F890
:1009900001206071002010BD08B50068064988423A
:1009A00008D10648016841F480510160006800F4F4
:1009B0008050009008BD00000030024030380240F6
:1009C0002DE9F047044622480F46017E01290AD04E
:1009D0000121804601764CF250394846FFF790FFDE
:1009E000020003D02FE00220BDE8F0874FF0FF3077
:1009F00038602068174D012801D0A6681CE0207CD3
:100A00006168FFF7EBFE4846FFF77AFF0246286869
:100A100020F00400286014E0217C3046FFF78CFEB3
:100A20004846FFF76DFF0200286820F0FA002860B2
:100A300001D03E6005E0761CD4E902100844B042C3
:100A4000EAD8FFF7A1FE002188F818101046CBE77E
:100A500060010020103C02400348016841F0004161
:100A60000160002070470000103C02402DE9F04773
:100A70001B4E05461446307E1F468946012808D085
:100A8000012030764CF250384046FFF739FF18B15C
:100A900014E00220BDE8F0879DB1012D16D0022D93
:100AA00019D022463B464846FFF7BCFE4046FFF7BA
:100AB00027FF0C490A6822F001020A600021317602
:100AC000E8E7E1B24846FFF79DFEEFE7A1B24846EE
:100AD000FFF7BEFEEAE721464846FFF7CBFEE5E713
:100AE00060010020103C0240074900200A68002AEB
:100AF00009DA054A054B0C3A1360054B1360096887
:100B0000002900DA01207047103C024023016745AC
:100B1000AB89EFCD2DE9F84F00224FF001080325F6
:100B20004FF00F0E0B6808FA02F42340A3426ED177
:100B30004E68012E05D0022E03D0112E01D0122EA8
:100B400012D186684FEA420C05FA0CF7BE43CF6813
:100B500007FA0CF7374387604668A6430C79C4F35D
:100B60000014944034434460C668570005FA07FCFB
:100B70008C6826EA0C06BC403443C4604C68022CE6
:100B800001D0122C13D1D40800EB8404A346D4F86E
:100B9000209054074FEAD46A0EFA0AF629EA0609A9
:100BA0000E6906FA0AF646EA0906CBF820600668DE
:100BB0000C7926EA0C0604F00304BC4034430460BC
:100BC0004C68E40065D5364C266846F480462660BD
:100BD000246822F0030604F480440094314C344429
:100BE000A446D4F808489607370F0EFA07F6B44320
:100BF0002D4EB04201D1002624E02C4EB04201D14E
:100C000001261FE02A4EB04202D102261AE040E03F
:100C1000284EB04201D1032614E0274EB04201D144
:100C200004260FE0254EB04201D105260AE0244EED
:100C3000B04201D1062605E0224EB04201D107267E
:100C400000E00826BE402643CCF808681E4E3468F3
:100C50004F689C43FF0300D51C4334601A4C241D8D
:100C600026684F689E43BF0300D51E432660164E7C
:100C7000083634684F689C43FF0200D51C4334603B
:100C8000114E0C3634684F689C43BF0200D51C439C
:100C90003460521C102AFFF445AFBDE8F88F000005
:100CA000443802400030014000000240000402408D
:100CB00000080240000C02400010024000140240F4
:100CC00000180240001C0240003C0140006908403E
:100CD00000D0012070470AB1816170470904FBE729
:100CE00001488068704700000800002002488168C1
:100CF0000278114481607047080000200B4810B54D
:100D0000016841F400710160016841F48061016093
:100D1000016841F480710160032000F061F8002057
:100D200000F006F800F024F8002010BD003C02405E
:100D300070B50D4D04464FF47A712878B1FBF0F090
:100D40000A490968B1FBF0F000F0F6FA48B9102C36
:100D500007D200222146501E00F022F800206C60CD
:100D600070BD012070BD00000800002014000020AC
:100D70000A4808B5016841F480410160006800F448
:100D8000804000900548001F016841F080510160DB
:100D9000006800F08050009008BD00004438024018
:100DA000F0B40E4B1B680C46C3F30223C3F10705D6
:100DB000042D00D90425191D072901D2002300E0C4
:100DC000DB1E012606FA05F1491E214099409E408E
:100DD000761E16403143F0BC00F074BD0CED00E00F
:100DE000064900F0070208684FF6FF03184040EA82
:100DF0000220034A10430860704700000CED00E039
:100E00000000FA052DE9F0470E46050065D0DFF831
:100E10001481D8F80000F7B200F00F00B04207D2FA
:100E200088F80070D8F8000000F00F00B04254D1EC
:100E300028683D4C810712D5400703D5206840F44F
:100E4000E05020602878000703D5206840F4604017
:100E500020602068A96820F0F0000843206028780E
:100E6000C0072DD0304968680839012812D00228FF
:100E700013D0032811D00968890700292DDA2168C9
:100E800021F0030101432160FFF72AFF814641F26F
:100E9000883A0EE009688903EFE709688901ECE701
:100EA000FFF71EFFA0EB0901514502D90320BDE861
:100EB000F0872068696800F00C00B0EB810FEFD17B
:100EC000D8F80010404601F00F01B14207D9077071
:100ED000006800F00F00B04201D00120E7E7287859
:100EE000400705D52068E96820F4E05008432060F9
:100EF0002878000706D52068296920F4604040EA78
:100F0000C100206000F038F82168084AC1F30311DD
:100F1000515CC8400649086006480068FFF708FFB2
:100F20000020C4E7003C024008380240B427000813
:100F3000140000200C0000200448054900680968DE
:100F4000044AC1F38221515CC8407047140000205C
:100F500008380240C42700080448054900680968A9
:100F6000044AC1F34231515CC8407047140000206C
:100F700008380240C4270008154810B5006810F072
:100F80000C02144813D01449042A0FD0082A0ED199
:100F90000F4C241F2268236802F03F025B0207D532
:100FA0002068C0F38810A0FB010106E0084610BDD0
:100FB0002168C1F38811A1FB00010023FFF700F9AC
:100FC0002168C1F30141491C4900B0FBF1F010BD9B
:100FD000083802400024F40040787D012DE9F84FE4
:100FE000040076D02078DFF838A3CE4DC00749D072
:100FF000DAF800105046C1F38101012908D00068D9
:10100000C0F3810002280AD1281D0068400206D5DD
:101010002868800336D560680028E2D032E0606836
:10102000B0F5803F10D0B0F5A02F286810D020F484
:1010300080302860286820F4802028606068A0B193
:10104000FFF74EFE06460CE0286840F48030F4E7D7
:1010500040F480202860F7E7FFF742FE801B6428F9
:1010600073D828688003F7D50CE0FFF739FE0646F1
:1010700005E000BFFFF734FE801B6428F0D8286825
:101080008003F7D42078DFF8A08280074FF00009B2
:101090003ED5DAF80010504611F00C0F09D0006868
:1010A000C0F3810002280BD19D48001F0068400258
:1010B00006D42868800715D5E068012809D111E019
:1010C000E068B8B10120C8F80000FFF709FE064645
:1010D00005E020E1FFF704FE801B0228C0D8286845
:1010E0008007F7D52868216920F0F80040EAC100A0
:1010F00028600DE0C8F80090FFF7F2FD064604E016
:10110000FFF7EEFD801B02281FD828688007F7D460
:101110002078000722D5824E844861696C3671B10F
:1011200001210160FFF7DCFD074604E0FFF7D8FD71
:10113000C01B022809D830688007F7D50EE0C0F838
:101140000090FFF7CDFD074605E082E0FFF7C8FD00
:10115000C01B02287DD830688007F7D4207840076C
:1011600068D5DFF8BCB100270BF1380BDBF80000C5
:10117000C0000BD4DBF8001041F08051CBF8001018
:10118000DBF80000012700F080500090684E3068C6
:10119000C00510D4306840F480703060FFF7A0FDC7
:1011A000009005E0FFF79CFD0099401A022850D8F6
:1011B0003068C005F6D55A4EA068683601280FD0B1
:1011C0000528306810D020F001003060306820F031
:1011D00004003060A068B8B1FFF782FD00900FE016
:1011E000306840F00100F4E740F004003060F7E7B9
:1011F000FFF776FD0099411A41F28830814266D8A6
:1012000030688007F4D50EE0FFF76AFD009007E034
:10121000FFF766FD0099411A41F28830814256D8A5
:1012200030688007F4D42FB1DBF8001021F0805132
:10123000CBF80010A069D0B3DAF800205146C2F311
:101240008102022A4AD00228484607D0C8F8600026
:1012500000E03CE0FFF744FD04463BE04746C8F8A9
:101260006000FFF73DFD064605E000BFFFF738FDD3
:10127000801B02282BD828688001F7D4D4E9070105
:101280000843A16A2B4A490802EB0141626A41EA1C
:101290008211084394F82C1040EA01612048001F95
:1012A000016001203866FFF71BFD044605E034E0CD
:1012B000FFF716FD001B022809D828688001F7D522
:1012C0002BE000BFFFF70CFD001B022802D9032012
:1012D000BDE8F88F28688001F4D41EE00128F7D01B
:1012E0000868E26900F48001914214D1226A00F09A
:1012F0003F0191420FD147F6C071626A01409142AD
:1013000009D1A26A00F44031914204D1E16A00F0AF
:101310007060884201D00120DAE70020D8E70000A1
:10132000083802400038024000004742800E474221
:10133000007000400000FFFF10B5401EB0F1807F3C
:1013400001D3012010BD4FF0E02460610F21601730
:1013500000F0B8FA0020A06107202061002010BD35
:1013600070B5040004D094F83900002510B106E0EF
:10137000012070BD84F83850204600F023F8242066
:1013800084F839002068C16821F40051C16020460A
:1013900000F0BEF92068016921F4904101612068E4
:1013A000416921F02A0141612068C16841F400517E
:1013B000C160E563202084F8390084F83A000020F9
:1013C00070BD0000F0B587B0044614216846FEF7F2
:1013D0002FFF20481E4F26681E4910380222012385
:1013E00003240725BE4215D10E6846F400360E6070
:1013F000096801F400310591016841F001010160C3
:101400000068694600F0010005900C208DE83D0061
:10141000114818E0114FBE4217D10E6846F48026DD
:101420000E60096801F480210591016841F0020114
:1014300001600068694600F0020005904FF44060CA
:101440008DE83D000648FFF765FB07B0F0BD0000E2
:101450000044004040380240000002400048004084
:10146000000402402DE9F843044690F83A009946FA
:1014700016460D46202852D1BDB1B6B194F83800B9
:1014800001284CD0012084F838000027E76322208F
:1014900084F83A002C34FFF723FC24F8026B8046D2
:1014A00024F80A6B04F8387931E00120BDE8F883AC
:1014B000E08D401EE085A0684346B0F5805F4FF0A8
:1014C00000024FF020012046CDF8009004D000F03B
:1014D000B3F998B10320E9E700F0AEF90028F9D19B
:1014E000206900282068406803D0C1B225F8011B9C
:1014F0000DE0C0F3080125F8021B08E02069002870
:101500002068406801D000F07F0005F8010BE08DF5
:101510000028CDD1202084F83A000020C6E7022020
:10152000C4E72DE9F843044690F839001F461646F3
:101530000D46202850D1B5B1AEB194F8380001283D
:101540004AD0012084F838004FF00008C4F83C80ED
:10155000212084F83900FFF7C3FBA6848146E68486
:1015600084F8388026E00120BDE8F883E08C401E36
:10157000E084A0684B46B0F5805F4FF000024FF06A
:1015800080012046009703D000F056F9E8B90DE03D
:1015900000F052F9C8B928882168C0F308004860F3
:1015A000206908B16D1C05E0AD1C03E0216815F849
:1015B000010B4860E08C0028D8D14B460022402126
:1015C0002046009700F038F908B10320CCE720202E
:1015D00084F839000020C7E70220C5E7FEE70000D5
:1015E0002DE9F04186B014216846FEF721FE1F4820
:1015F0000024016841F001010160016801F001016E
:101600000591016841F002010160016801F00201E9
:101610000591016841F0080101600068DFF8508021
:1016200000F008004FF47046059000223146404615
:10163000FFF751FB0125CDE900540E4F69463846AE
:101640000294FFF767FA0220CDE9000469463846A4
:101650000294FFF75FFA0096CDE9015469464046CF
:101660000394FFF757FA06B0BDE8F0813038024026
:10167000000C024000000240FEE7704770477047D0
:10168000FFF734BB10B592B030216846FEF7D0FDAD
:1016900014210CA8FEF7CCFD14480024016841F089
:1016A00080510160006800F080501190104801687E
:1016B00041F4804101600068069400F4804011907C
:1016C0000220009001200390102004906846FFF74C
:1016D00085FC0F20CDE90C040E940F9400210CA87A
:1016E0001094FFF78FFB12B010BD0000403802408D
:1016F000007000400548016841F470010160034931
:101700004FF00060803908607047000088ED00E00D
:101710002DE9F041044600680169E26821F4405176
:10172000114301612169A068E269084361691143BD
:1017300008432168CA6849F20C639A430243CA60AD
:1017400020684169A26921F4407111434161E06957
:10175000192764253226B0F5004F354A35492068EF
:101760004FF0000806D0884201D0904236D1FFF7F2
:10177000F3FB35E0884201D0904202D1FFF7ECFB49
:1017800001E0FFF7D9FB61684A18A0FB070148EBAD
:101790000803FEF715FD0146B0FBF5F00201B1FBB1
:1017A000F5F06FF01803584301EB800006EBC00022
:1017B000B0FBF5F000F0F80002EB4002B1FBF5F0F1
:1017C000584301EB800006EBC000B0FBF5F000F0E1
:1017D0000700216810448860BDE8F081FFF7ACFB8A
:1017E00061688B0F8A00A0FB0701FEF7E9FC014648
:1017F000B0FBF5F06FF01802504301EB800006EBF0
:101800000010B0FBF5F000F0F002B1FBF5F002EBD8
:101810000012B1FBF5F06FF01803584301EB8000A4
:1018200006EB0010B0FBF5F000F00F00D1E7000070
:1018300000140140001001402DE9F0419846174680
:101840000E460446069D1DE0681C1BD02DB1FFF717
:1018500047FAA0EB0800A84214D92068C16821F417
:10186000D071C1602068416921F0010141612020EF
:1018700084F8390084F83A00002084F83800032006
:10188000BDE8F0812068006836EA000004D000203E
:10189000B842D9D00020F3E70120F9E7FEE70000C5
:1018A00037B514460846064B6A46214600F0ECF868
:1018B00004466946002000F07EFC20463EBD000044
:1018C000B72100080907090E002804DB00F1E02019
:1018D00080F80014704700F00F0000F1E02080F85D
:1018E000141D704702E008C8121F08C1002AFAD16F
:1018F00070477047002001E001C1121F002AFBD190
:10190000704700002DE9FF5F82B00021DDE904305F
:10191000020DDDF840B0034318D044F61050A2F297
:10192000FF3242431514119801281FD0A5EB0B007C
:10193000401C5FEA000A4FF000064E4FDFF8389176
:10194000B046504615D5CAF1000413E011980124A1
:101950004AA3012801D16FEA0B010298119AC0E94C
:101960000031C0E9024206B0BDE8F09FCBF10000B3
:10197000DFE704460021404A491842EB0450CDE914
:10198000001012E0E00707D032463B464046494689
:10199000FEF73CFD8046894632463B4610461946D6
:1019A000FEF734FD06460F466410002CEAD1DDE94F
:1019B0000401DDE90023BAF1000F06DAFEF726FD87
:1019C00042464B46FEF722FD05E0FEF791FD4246FA
:1019D0004B46FEF78DFD04460E460022284BFEF7CF
:1019E0000FFE03D84FF0FF30014607E00022254BE1
:1019F00020463146FEF763FCFEF7E9FD102409E0BE
:101A0000002C0ADB0A220023FEF7DAFB039B3032AC
:101A10001A55641E50EA0102F2D1641C039AC4F103
:101A200011031444119A012A03D0012208430DD155
:101A30000AE0084304D000204FF0110B119072E728
:101A4000A3EB0B056D1E0DE05B4504DD4FF00002BE
:101A500005F1010504E003DA4FF00002A5F10105EC
:101A6000002AECD002981199C0E90231C0E9004582
:101A700079E70000000014400000F03F3000000053
:101A80000000F0430000E03F2DE9FF4F95B09B467A
:101A90008946064600250FE2252877D100242746EF
:101AA000F84A0121059400E0044316F8013F203B69
:101AB00001FA03F01042F7D130782A2811D06FF0E4
:101AC0002F033078A0F13002092A16D8059A44F085
:101AD000020402EB820203EB42021044761C0590E2
:101AE000EFE759F8042B0592002A03DA504244F438
:101AF0000054059044F00204761C30782E2816D14C
:101B000016F8010F44F004042A280DD06FF02F02BC
:101B10003078A0F13003092B09D807EB870302EBDB
:101B20004303C718761CF3E759F8047B761C30781A
:101B30006C280FD006DC4C2817D068280DD06A28F6
:101B400014D104E0742810D07A280FD10DE044F4A9
:101B500000140AE044F4801401E044F44014727864
:101B6000824202D104F58014761C761C30786628F7
:101B70000BD013DC582877D009DC002875D0452815
:101B8000F6D04628F4D047281AD19DE118E0632802
:101B900035D0642879D0652812D195E1702873D0AA
:101BA00008DC6728F1D069286FD06E280DD06F2827
:101BB00006D1B5E073282CD0752875D0782874D05C
:101BC0005A46179990476D1C75E1C4F302500228DC
:101BD00009D003280DD0D9F8001004280DD00D60CD
:101BE00009F1040967E1D9F80010EA17C1E90052C8
:101BF000F6E7D9F800100D80F2E70D70F0E719F85C
:101C0000041B8DF8001000208DF80100EA46012029
:101C100003E059F804AB4FF0FF3061074FF00001CB
:101C200002D40DE008F101018846B9420FDA80457F
:101C3000F8DB1AF808100029F4D108E008F10101D6
:101C400088468142FADB1AF808100029F6D1059877
:101C50005B46A0EB080721463846179A00F094FA35
:101C6000284400EB080507E04DE029E10DE01AF8F3
:101C7000010B5A4617999047B8F10108F7D25B4615
:101C800021463846179A13E142E00A220092C4F333
:101C900002524FF0000A022A08D059F804CB032A56
:101CA0004FEAEC710AD00DE029E02AE009F10701C2
:101CB00021F00702F2E802C1914609E00FFA8CFC1C
:101CC0004FEAEC71042A03D14FFA8CFC4FEAEC7115
:101CD000002907DA0A460021DCF1000C61EB020161
:101CE0002D2202E0220504D52B228DF804200122AA
:101CF00003E0E20701D02022F7E7904659E00A21ED
:101D000002E010220DE010214FF0000A00910BE0DC
:101D100010224FF0000A44F004040827009203E068
:101D200008224FF0000A0092C4F30252022A05D0A2
:101D300059F804CB0021032A08D009E009F1070172
:101D400021F00702F2E802C1914605E01FFA8CFC7F
:101D5000042A01D10CF0FF0C4FF00008220728D50F
:101D6000702806D0009B83F0100353EA0A0305D0C5
:101D70000EE040228DF80420012208E05CEA010216
:101D800006D030228DF804208DF8050002229046FE
:101D9000009B83F0080353EA0A030AD15CEA0102BC
:101DA00001D1620705D530228DF804204FF00108DB
:101DB0007F1E582804D034A003900EA802900DE096
:101DC00036A0F9E753466046009AFEF7F9F98446D3
:101DD0000398825C0298401E029002705CEA010047
:101DE000F0D1029806A9081A00F1200A600702D56E
:101DF00024F4803400E00127574502DDA7EB0A00F8
:101E000000E0002000EB0A01009005984144401AD0
:101E10000590E00306D45B462146179A059800F02A
:101E2000B3F90544002706E001A85A46C05D17999A
:101E300090476D1C7F1C4745F6DBE0030CD55B46E5
:101E40002146179A059800F09FF9054404E03020D8
:101E50005A46179990476D1C0099481E009000291A
:101E6000F5DC08E0029802995A460078491C029174
:101E7000179990476D1CBAF10001AAF1010AF1DC33
:101E800065E100000928010030313233343536373E
:101E900038396162636465660000000030313233B6
:101EA0003435363738394142434445460000000056
:101EB00000F058F90544761C307800287FF4ECAD2A
:101EC00019B02846BDE8F08F620700D4062709F153
:101ED000070222F0070CFCE80223E14603F0004869
:101EE0005FEA080C02D00FF2702C0DE05FEA045C90
:101EF00002D50FF2682C07E05FEAC47C02D00FF233
:101F0000602C01E0AFF2700C4FF0FF3823F000437B
:101F1000CDF850C065280CD006DC452809D04628ED
:101F20001DD047283DD13DE0662818D067287ED1D6
:101F300038E00021112F01DB112000E0781CCDE9F1
:101F4000000106A90EA8FFF7DDFCDDE90F010E9ADE
:101F500003910021009207F1010A04914DE04FF036
:101F600000400097CDE9011006A90EA8FFF7CAFCB2
:101F7000DDE90F0203920E9B11990022DDF80CA0FF
:101F80000093049211B9791C00EB010AB7EB0A0027
:101F900004D4C0F1FF3007F1010A0490AAEB070056
:101FA000019044E0012F00DA01270021112F01DD0B
:101FB000112000E03846CDE9000106A90EA8FFF780
:101FC000A1FCDDE90F010E9A03910021049100921A
:101FD000BA4621070CD40399514500DA8A46BAF172
:101FE000010F05DD009AAAF10101515C302908D0EA
:101FF000B84202DA10F1040F06DA0121CDE901102E
:1020000015E0AAF10101E9E7002805DC0499014483
:102010000491AAEB000102E0411C514500DD8A4613
:102020000499401A401C01904FF000400290200794
:1020300004D40198504501DBCDF8048000208DF8D0
:102040004F0002980DF14F07B0F1004F25D02B2023
:102050000E9002984FF0020800280CDA40420290DD
:102060002D200E9007E00A210298FEF7F3F8303198
:10207000029007F8011DB8F10001A8F10108F2DC97
:1020800002980028EFD1791E0E980870307800F081
:10209000200040F0450007F8020D12A8C01B00F117
:1020A00007081498007800B1012000EB0A0101989C
:1020B00001EBE07105984144401A401E0590E00391
:1020C00006D45B462146179A059800F05DF8054452
:1020D0001498007818B15A46179990476D1CE00380
:1020E00024D55B462146179A059800F04DF8054423
:1020F0001CE00498002807DBDDE90301884203DDCA
:102100000098405C179901E0179930205A46904793
:10211000049805F10105401C04900198401E0190AF
:1021200004D12E205A46179990476D1CBAF1000130
:10213000AAF1010ADDDC05E017F8010B5A461799F0
:1021400090476D1CB8F10001A8F10108F4DC5B4672
:102150002146179A0598ABE62D0000002B000000E1
:10216000200000002DE9F041044600251E461746D8
:10217000880404D405E039462020B0476D1C641E55
:10218000F9D52846BDE8F0812DE9F0410446002547
:102190001E469046C80301D5302700E0202788045A
:1021A00004D505E041463846B0476D1C641EF9D59C
:1021B0002846BDE8F0810A68531C0B601070704718
:1021C0008AB201464FF0FF330148FFF7AAB9000079
:1021D00058000020F8B50746FF2016460D4600249B
:1021E00007E0385D0090012269460948FEF7B0FB20
:1021F000641CAC42F5D3064909688A6842F00102C2
:102200008A60B04201D10020F8BD0120F8BD000075
:102210000000002010B586B008291FD80123FF2830
:102220001AD007281AD8C0F10802D2B2914200D9B8
:10223000114600220092CDE902010193FEF754FC01
:102240000220049005A96846FEF7BAFB0446FEF793
:1022500003FC204606B010BD0093EEE70420F9E72A
:102260002DE9F04115460E460746FEF73DFC0024D9
:1022700006E000233A5D31191846FEF7F7FB641CAF
:10228000AC42F6D3FEF7E8FB0120BDE8F081000088
:10229000F8B5044600208DF800001EA000F028FAD2
:1022A00021480178491C0844091F50F8042C1E4895
:1022B000FFF790FF28B11DA000F01AFA00F0C6F851
:1022C000F8BD22A000F014FA2078012100F0AEF849
:1022D000E278A17823A000F00BFA01222A4ED50360
:1022E00029463046FEF7F7FCE178A078FFF792FF29
:1022F0008DF80000002229463046FEF7ECFC9DF8E0
:10230000001022A000F0F4F901216846FFF758FF01
:10231000F8BD0000666C61736820657261736520AA
:10232000636F6D6D656E640098000020424C5F44E1
:10233000454255475F4D53473A636865636B737514
:102340006D206661696C2021210A00006368656365
:102350006B73756D20697320636F7272656374208F
:102360000A000000696E6974616C5F736563746F65
:1023700072203A256420206E6F66736563746F72F5
:102380003A202564200A0000000C0240666C61734C
:1023900068206572617365207374617475733A2087
:1023A0002523780A0000000070B50AA000F0A0F90B
:1023B000104D2C6810A0214600F09AF984F308888B
:1023C0006C6812A0214600F093F9A446BDE8704065
:1023D00060470000426F6F746C6F61646572206AC1
:1023E000756D7020746F20757365725F61707020F9
:1023F0000A000000008000086D73705F76616C75E4
:10240000653A20252378200A000000007265736574
:102410007468616E646C65725F6164647265737325
:10242000203A20252378200A0000000008B54FF04C
:10243000FF338DF800008DF8011002226946024832
:10244000FFF76FF808BD00005800002008B57F2096
:102450008DF800004FF0FF33012269460148FFF775
:1024600060F808BD58000020114C4FF0FF35C8211E
:102470000F48FDF7DDFE2B4601220D490D48FEF702
:10248000F1FF22782B46611C0A48FEF7EBFF6078CB
:10249000562805D0572807D007A000F029F9E6E70D
:1024A0000348FFF7F5FEE2E7014800F01BF8DEE71E
:1024B0009800002058000020496E76616C69642005
:1024C000636F6D6D616E642066726F6D20726563FF
:1024D00069657665642066726F6D20686F7374201D
:1024E0000A0000002DE9F843044600208DF80000A2
:1024F00094F80680D4F8025023A000F0F9F82E4892
:102500000178491C0844091F50F8042C2A48FFF799
:1025100061FE30B129A000F0EBF8FFF797FFBDE8AE
:10252000F8832EA000F0E4F820780121FFF77EFF69
:10253000294633A000F0DCF8A5F10060B0F5801F5B
:1025400016D239A000F0D4F80122414F16033146CB
:102550003846FEF7C0FB42462946E01DFFF780FEE5
:102560008DF80000002231463846FEF7B4FB05E046
:1025700038A000F0BDF801208DF800000121684668
:10258000FFF71EFECBE70000424C5F444542554733
:102590005F4D53473A626F6F746C6F616465725F31
:1025A00068616E646C655F6D656D5F777269746597
:1025B0005F636D640A00000098000020424C5F4495
:1025C000454255475F4D53473A636865636B737582
:1025D0006D206661696C2021210A0000424C5F4435
:1025E000454255475F4D53473A636865636B737562
:1025F0006D20737563636573732021210A000000E9
:10260000424C5F44454255475F4D53473A206D6504
:102610006D207772697465206164647265737320DC
:102620003A202523780A0000424C5F444542554732
:102630005F4D53473A2076616C6964206D656D206B
:10264000777269746520616464726573730A00004F
:10265000000C0240424C5F44454255475F4D534792
:102660003A20696E76616C6964206D656D207772C1
:1026700069746520616464726573730A0000000008
:1026800070B5FEF73BFBFEF7FDFFFEF7A9FF14490F
:10269000124808600846FEF76EF9134811494FF4D6
:1026A000E13500240160C0E901540C26C460C0E992
:1026B00004468461C461FEF753FE0B480B49403069
:1026C0000160C0E90154C460C0E904468461C4618A
:1026D000FEF746FE00F024F8002070BD00300240F6
:1026E0000000002000440040180000200048004086
:1026F0000FB400B595B017AA68461699FFF7D0F841
:102700006846FDF7A0FD82B24FF0FF3369460348EB
:10271000FEF707FF15B05DF814FB0000180000205D
:1027200010B501210D48FEF7D1FA02460C484FF4CE
:102730000041012A09D00122FEF7CDFA09A0FFF7D6
:10274000D7FFBDE81040FFF72FBE0022FEF7C3FA07
:102750000EA0FFF7CDFFFFF787FE0000000002404C
:10276000000C0240427574746F6E206973206E6FA6
:102770007420707265737373656428757365722055
:10278000617070206D6F646529000000427574747B
:102790006F6E206973207072657373656428626F51
:1027A0006F746C6F61646572206D6F6465290A0DCA
:1027B000000000000000000000000000010203040F
:1027C000060708090000000001020304EC270008C6
:1027D0000000002018000000E41800080428000889
:1027E0001800002068050000F41800080000000030
:1027F00000000000010000001000000000000000C8
:042800000024F400BC
:040000050800018965
:00000001FF
